{
  "address": "0xDe0E0EB875d21D6d2F503C4c4dD49e474A49A216",
  "abi": [
    {
      "inputs": [
        {
          "internalType": "address",
          "name": "exampleExternalContractAddress",
          "type": "address"
        }
      ],
      "stateMutability": "nonpayable",
      "type": "constructor"
    },
    {
      "anonymous": false,
      "inputs": [
        {
          "indexed": false,
          "internalType": "address",
          "name": "",
          "type": "address"
        },
        {
          "indexed": false,
          "internalType": "uint256",
          "name": "",
          "type": "uint256"
        }
      ],
      "name": "Stake",
      "type": "event"
    },
    {
      "inputs": [
        {
          "internalType": "address",
          "name": "",
          "type": "address"
        }
      ],
      "name": "balances",
      "outputs": [
        {
          "internalType": "uint256",
          "name": "",
          "type": "uint256"
        }
      ],
      "stateMutability": "view",
      "type": "function"
    },
    {
      "inputs": [],
      "name": "deadline",
      "outputs": [
        {
          "internalType": "uint256",
          "name": "",
          "type": "uint256"
        }
      ],
      "stateMutability": "view",
      "type": "function"
    },
    {
      "inputs": [],
      "name": "exampleExternalContract",
      "outputs": [
        {
          "internalType": "contract ExampleExternalContract",
          "name": "",
          "type": "address"
        }
      ],
      "stateMutability": "view",
      "type": "function"
    },
    {
      "inputs": [],
      "name": "execute",
      "outputs": [],
      "stateMutability": "nonpayable",
      "type": "function"
    },
    {
      "inputs": [],
      "name": "stake",
      "outputs": [],
      "stateMutability": "payable",
      "type": "function"
    },
    {
      "inputs": [],
      "name": "threshold",
      "outputs": [
        {
          "internalType": "uint256",
          "name": "",
          "type": "uint256"
        }
      ],
      "stateMutability": "view",
      "type": "function"
    },
    {
      "inputs": [],
      "name": "timeLeft",
      "outputs": [
        {
          "internalType": "uint256",
          "name": "",
          "type": "uint256"
        }
      ],
      "stateMutability": "view",
      "type": "function"
    },
    {
      "inputs": [],
      "name": "withdraw",
      "outputs": [],
      "stateMutability": "nonpayable",
      "type": "function"
    },
    {
      "stateMutability": "payable",
      "type": "receive"
    }
  ],
  "transactionHash": "0x75ab04e94500ada4b5fb240a7d8222dc615bd9d34e733c42f49b55ddb7f1e730",
  "args": [
    "0x146ABF408c38a3F4be523D8Cd08B8A14564Be2f1"
  ],
  "numDeployments": 1,
  "solcInputHash": "cc1eeead38319d516b66ce7b62db1385",
  "bytecode": "0x6080604052610011426203f48061006e565b6002556003805460ff1916905534801561002a57600080fd5b5060405161080138038061080183398101604081905261004991610095565b600080546001600160a01b0319166001600160a01b03929092169190911790556100c5565b8082018082111561008f57634e487b7160e01b600052601160045260246000fd5b92915050565b6000602082840312156100a757600080fd5b81516001600160a01b03811681146100be57600080fd5b9392505050565b61072d806100d46000396000f3fe60806040526004361061007f5760003560e01c80633ccfd60b1161004e5780633ccfd60b1461010657806342cde4e81461011b57806361461954146101375780639f75f2271461014c57600080fd5b80631300a6d11461009357806327e235e3146100bb57806329dcb0cf146100e85780633a4b66f1146100fe57600080fd5b3661008e5761008c610184565b005b600080fd5b34801561009f57600080fd5b506100a86102c1565b6040519081526020015b60405180910390f35b3480156100c757600080fd5b506100a86100d636600461062c565b60016020526000908152604090205481565b3480156100f457600080fd5b506100a860025481565b61008c610184565b34801561011257600080fd5b5061008c6102e5565b34801561012757600080fd5b506100a8670de0b6b3a764000081565b34801561014357600080fd5b5061008c6104c1565b34801561015857600080fd5b5060005461016c906001600160a01b031681565b6040516001600160a01b0390911681526020016100b2565b60008054906101000a90046001600160a01b03166001600160a01b0316639d9a7fe96040518163ffffffff1660e01b8152600401602060405180830381865afa1580156101d5573d6000803e3d6000fd5b505050506040513d601f19601f820116820180604052508101906101f9919061065c565b1561021f5760405162461bcd60e51b81526004016102169061067e565b60405180910390fd5b60025442106102635760405162461bcd60e51b815260206004820152601060248201526f111958591b1a5b99481c995858da195960821b6044820152606401610216565b33600090815260016020526040812080543492906102829084906106cb565b9091555050604080513381523460208201527febedb8b3c678666e7f36970bc8f57abf6d8fa2e828c0da91ea5b75bf68ed101a910160405180910390a1565b600060025442106102d25750600090565b426002546102e091906106e4565b905090565b60008054906101000a90046001600160a01b03166001600160a01b0316639d9a7fe96040518163ffffffff1660e01b8152600401602060405180830381865afa158015610336573d6000803e3d6000fd5b505050506040513d601f19601f8201168201806040525081019061035a919061065c565b156103775760405162461bcd60e51b81526004016102169061067e565b60035460ff166103c95760405162461bcd60e51b815260206004820152601860248201527f5769746864726177616c7320617265206e6f74206f70656e00000000000000006044820152606401610216565b336000908152600160205260409020548061041f5760405162461bcd60e51b81526020600482015260166024820152754e6f2062616c616e636520746f20776974686472617760501b6044820152606401610216565b336000818152600160205260408082208290555190919083908381818185875af1925050503d8060008114610470576040519150601f19603f3d011682016040523d82523d6000602084013e610475565b606091505b50509050806104bd5760405162461bcd60e51b81526020600482015260146024820152732330b4b632b2103a379039b2b7321022ba3432b960611b6044820152606401610216565b5050565b60008054906101000a90046001600160a01b03166001600160a01b0316639d9a7fe96040518163ffffffff1660e01b8152600401602060405180830381865afa158015610512573d6000803e3d6000fd5b505050506040513d601f19601f82011682018060405250810190610536919061065c565b156105535760405162461bcd60e51b81526004016102169061067e565b6002544210156105a55760405162461bcd60e51b815260206004820152601860248201527f446561646c696e65206e6f7420726561636865642079657400000000000000006044820152606401610216565b670de0b6b3a7640000471061061d5760008054906101000a90046001600160a01b03166001600160a01b031663522e1177476040518263ffffffff1660e01b81526004016000604051808303818588803b15801561060257600080fd5b505af1158015610616573d6000803e3d6000fd5b5050505050565b6003805460ff19166001179055565b60006020828403121561063e57600080fd5b81356001600160a01b038116811461065557600080fd5b9392505050565b60006020828403121561066e57600080fd5b8151801515811461065557600080fd5b60208082526017908201527f5374616b6520616c726561647920636f6d706c65746564000000000000000000604082015260600190565b634e487b7160e01b600052601160045260246000fd5b808201808211156106de576106de6106b5565b92915050565b818103818111156106de576106de6106b556fea2646970667358221220f412b6711f7cc978dda81c6984f767befdc656949fcd0d90a290493730c41ba364736f6c63430008140033",
  "devdoc": {
    "kind": "dev",
    "methods": {},
    "version": 1
  },
  "userdoc": {
    "kind": "user",
    "methods": {},
    "version": 1
  },
  "storageLayout": {
    "storage": [
      {
        "astId": 19,
        "contract": "contracts/Staker.sol:Staker",
        "label": "exampleExternalContract",
        "offset": 0,
        "slot": "0",
        "type": "t_contract(ExampleExternalContract)12"
      },
      {
        "astId": 23,
        "contract": "contracts/Staker.sol:Staker",
        "label": "balances",
        "offset": 0,
        "slot": "1",
        "type": "t_mapping(t_address,t_uint256)"
      },
      {
        "astId": 32,
        "contract": "contracts/Staker.sol:Staker",
        "label": "deadline",
        "offset": 0,
        "slot": "2",
        "type": "t_uint256"
      },
      {
        "astId": 35,
        "contract": "contracts/Staker.sol:Staker",
        "label": "openForWithdraw",
        "offset": 0,
        "slot": "3",
        "type": "t_bool"
      }
    ],
    "types": {
      "t_address": {
        "encoding": "inplace",
        "label": "address",
        "numberOfBytes": "20"
      },
      "t_bool": {
        "encoding": "inplace",
        "label": "bool",
        "numberOfBytes": "1"
      },
      "t_contract(ExampleExternalContract)12": {
        "encoding": "inplace",
        "label": "contract ExampleExternalContract",
        "numberOfBytes": "20"
      },
      "t_mapping(t_address,t_uint256)": {
        "encoding": "mapping",
        "key": "t_address",
        "label": "mapping(address => uint256)",
        "numberOfBytes": "32",
        "value": "t_uint256"
      },
      "t_uint256": {
        "encoding": "inplace",
        "label": "uint256",
        "numberOfBytes": "32"
      }
    }
  }
}